{
    "_format": "hh-sol-artifact-1",
    "contractName": "TaskManager",
    "sourceName": "contracts/TaskManager.sol",
    "abi": [
        {
            "inputs": [],
            "stateMutability": "nonpayable",
            "type": "constructor"
        },
        {
            "inputs": [
                {
                    "internalType": "uint256",
                    "name": "handle",
                    "type": "uint256"
                },
                {
                    "internalType": "address",
                    "name": "account",
                    "type": "address"
                }
            ],
            "name": "ACLNotAllowed",
            "type": "error"
        },
        {
            "inputs": [
                {
                    "internalType": "address",
                    "name": "target",
                    "type": "address"
                }
            ],
            "name": "AddressEmptyCode",
            "type": "error"
        },
        {
            "inputs": [
                {
                    "internalType": "uint256",
                    "name": "ctHash",
                    "type": "uint256"
                }
            ],
            "name": "DecryptionResultNotReady",
            "type": "error"
        },
        {
            "inputs": [],
            "name": "ECDSAInvalidSignature",
            "type": "error"
        },
        {
            "inputs": [
                {
                    "internalType": "uint256",
                    "name": "length",
                    "type": "uint256"
                }
            ],
            "name": "ECDSAInvalidSignatureLength",
            "type": "error"
        },
        {
            "inputs": [
                {
                    "internalType": "bytes32",
                    "name": "s",
                    "type": "bytes32"
                }
            ],
            "name": "ECDSAInvalidSignatureS",
            "type": "error"
        },
        {
            "inputs": [
                {
                    "internalType": "address",
                    "name": "implementation",
                    "type": "address"
                }
            ],
            "name": "ERC1967InvalidImplementation",
            "type": "error"
        },
        {
            "inputs": [],
            "name": "ERC1967NonPayable",
            "type": "error"
        },
        {
            "inputs": [],
            "name": "FailedCall",
            "type": "error"
        },
        {
            "inputs": [],
            "name": "InvalidAddress",
            "type": "error"
        },
        {
            "inputs": [],
            "name": "InvalidInitialization",
            "type": "error"
        },
        {
            "inputs": [
                {
                    "internalType": "string",
                    "name": "functionName",
                    "type": "string"
                },
                {
                    "internalType": "uint8",
                    "name": "inputType",
                    "type": "uint8"
                }
            ],
            "name": "InvalidInputForFunction",
            "type": "error"
        },
        {
            "inputs": [
                {
                    "internalType": "uint8",
                    "name": "actual",
                    "type": "uint8"
                },
                {
                    "internalType": "uint8",
                    "name": "expected",
                    "type": "uint8"
                }
            ],
            "name": "InvalidInputType",
            "type": "error"
        },
        {
            "inputs": [
                {
                    "internalType": "string",
                    "name": "operation",
                    "type": "string"
                },
                {
                    "internalType": "uint256",
                    "name": "got",
                    "type": "uint256"
                },
                {
                    "internalType": "uint256",
                    "name": "expected",
                    "type": "uint256"
                }
            ],
            "name": "InvalidInputsAmount",
            "type": "error"
        },
        {
            "inputs": [
                {
                    "internalType": "string",
                    "name": "operation",
                    "type": "string"
                }
            ],
            "name": "InvalidOperationInputs",
            "type": "error"
        },
        {
            "inputs": [
                {
                    "internalType": "int32",
                    "name": "zone",
                    "type": "int32"
                },
                {
                    "internalType": "int32",
                    "name": "min",
                    "type": "int32"
                },
                {
                    "internalType": "int32",
                    "name": "max",
                    "type": "int32"
                }
            ],
            "name": "InvalidSecurityZone",
            "type": "error"
        },
        {
            "inputs": [],
            "name": "InvalidSignature",
            "type": "error"
        },
        {
            "inputs": [
                {
                    "internalType": "address",
                    "name": "signer",
                    "type": "address"
                },
                {
                    "internalType": "address",
                    "name": "expectedSigner",
                    "type": "address"
                }
            ],
            "name": "InvalidSigner",
            "type": "error"
        },
        {
            "inputs": [
                {
                    "internalType": "string",
                    "name": "operation",
                    "type": "string"
                }
            ],
            "name": "InvalidTypeOrSecurityZone",
            "type": "error"
        },
        {
            "inputs": [],
            "name": "NotInitializing",
            "type": "error"
        },
        {
            "inputs": [
                {
                    "internalType": "address",
                    "name": "caller",
                    "type": "address"
                }
            ],
            "name": "OnlyAggregatorAllowed",
            "type": "error"
        },
        {
            "inputs": [
                {
                    "internalType": "address",
                    "name": "owner",
                    "type": "address"
                }
            ],
            "name": "OwnableInvalidOwner",
            "type": "error"
        },
        {
            "inputs": [
                {
                    "internalType": "address",
                    "name": "account",
                    "type": "address"
                }
            ],
            "name": "OwnableUnauthorizedAccount",
            "type": "error"
        },
        {
            "inputs": [],
            "name": "RandomFunctionNotSupported",
            "type": "error"
        },
        {
            "inputs": [
                {
                    "internalType": "string",
                    "name": "operation",
                    "type": "string"
                },
                {
                    "internalType": "uint256",
                    "name": "got",
                    "type": "uint256"
                },
                {
                    "internalType": "uint256",
                    "name": "maxAllowed",
                    "type": "uint256"
                }
            ],
            "name": "TooManyInputs",
            "type": "error"
        },
        {
            "inputs": [],
            "name": "UUPSUnauthorizedCallContext",
            "type": "error"
        },
        {
            "inputs": [
                {
                    "internalType": "bytes32",
                    "name": "slot",
                    "type": "bytes32"
                }
            ],
            "name": "UUPSUnsupportedProxiableUUID",
            "type": "error"
        },
        {
            "anonymous": false,
            "inputs": [
                {
                    "indexed": false,
                    "internalType": "uint256",
                    "name": "ctHash",
                    "type": "uint256"
                },
                {
                    "indexed": false,
                    "internalType": "uint256",
                    "name": "result",
                    "type": "uint256"
                },
                {
                    "indexed": true,
                    "internalType": "address",
                    "name": "requestor",
                    "type": "address"
                }
            ],
            "name": "DecryptionResult",
            "type": "event"
        },
        {
            "anonymous": false,
            "inputs": [
                {
                    "indexed": false,
                    "internalType": "uint64",
                    "name": "version",
                    "type": "uint64"
                }
            ],
            "name": "Initialized",
            "type": "event"
        },
        {
            "anonymous": false,
            "inputs": [
                {
                    "indexed": true,
                    "internalType": "address",
                    "name": "previousOwner",
                    "type": "address"
                },
                {
                    "indexed": true,
                    "internalType": "address",
                    "name": "newOwner",
                    "type": "address"
                }
            ],
            "name": "OwnershipTransferStarted",
            "type": "event"
        },
        {
            "anonymous": false,
            "inputs": [
                {
                    "indexed": true,
                    "internalType": "address",
                    "name": "previousOwner",
                    "type": "address"
                },
                {
                    "indexed": true,
                    "internalType": "address",
                    "name": "newOwner",
                    "type": "address"
                }
            ],
            "name": "OwnershipTransferred",
            "type": "event"
        },
        {
            "anonymous": false,
            "inputs": [
                {
                    "indexed": false,
                    "internalType": "uint256",
                    "name": "ctHash",
                    "type": "uint256"
                },
                {
                    "indexed": false,
                    "internalType": "string",
                    "name": "operation",
                    "type": "string"
                },
                {
                    "indexed": false,
                    "internalType": "string",
                    "name": "errorMessage",
                    "type": "string"
                }
            ],
            "name": "ProtocolNotification",
            "type": "event"
        },
        {
            "anonymous": false,
            "inputs": [
                {
                    "indexed": false,
                    "internalType": "uint256",
                    "name": "ctHash",
                    "type": "uint256"
                },
                {
                    "indexed": false,
                    "internalType": "string",
                    "name": "operation",
                    "type": "string"
                },
                {
                    "indexed": false,
                    "internalType": "uint256",
                    "name": "input1",
                    "type": "uint256"
                },
                {
                    "indexed": false,
                    "internalType": "uint256",
                    "name": "input2",
                    "type": "uint256"
                },
                {
                    "indexed": false,
                    "internalType": "uint256",
                    "name": "input3",
                    "type": "uint256"
                }
            ],
            "name": "TaskCreated",
            "type": "event"
        },
        {
            "anonymous": false,
            "inputs": [
                {
                    "indexed": true,
                    "internalType": "address",
                    "name": "implementation",
                    "type": "address"
                }
            ],
            "name": "Upgraded",
            "type": "event"
        },
        {
            "inputs": [],
            "name": "UPGRADE_INTERFACE_VERSION",
            "outputs": [
                {
                    "internalType": "string",
                    "name": "",
                    "type": "string"
                }
            ],
            "stateMutability": "view",
            "type": "function"
        },
        {
            "inputs": [],
            "name": "acceptOwnership",
            "outputs": [],
            "stateMutability": "nonpayable",
            "type": "function"
        },
        {
            "inputs": [],
            "name": "acl",
            "outputs": [
                {
                    "internalType": "contract ACL",
                    "name": "",
                    "type": "address"
                }
            ],
            "stateMutability": "view",
            "type": "function"
        },
        {
            "inputs": [],
            "name": "aggregator",
            "outputs": [
                {
                    "internalType": "address",
                    "name": "",
                    "type": "address"
                }
            ],
            "stateMutability": "view",
            "type": "function"
        },
        {
            "inputs": [
                {
                    "internalType": "uint256",
                    "name": "ctHash",
                    "type": "uint256"
                },
                {
                    "internalType": "address",
                    "name": "account",
                    "type": "address"
                }
            ],
            "name": "allow",
            "outputs": [],
            "stateMutability": "nonpayable",
            "type": "function"
        },
        {
            "inputs": [
                {
                    "internalType": "uint256",
                    "name": "ctHash",
                    "type": "uint256"
                }
            ],
            "name": "allowForDecryption",
            "outputs": [],
            "stateMutability": "nonpayable",
            "type": "function"
        },
        {
            "inputs": [
                {
                    "internalType": "uint256",
                    "name": "ctHash",
                    "type": "uint256"
                }
            ],
            "name": "allowGlobal",
            "outputs": [],
            "stateMutability": "nonpayable",
            "type": "function"
        },
        {
            "inputs": [
                {
                    "internalType": "uint256",
                    "name": "ctHash",
                    "type": "uint256"
                },
                {
                    "internalType": "address",
                    "name": "account",
                    "type": "address"
                }
            ],
            "name": "allowTransient",
            "outputs": [],
            "stateMutability": "nonpayable",
            "type": "function"
        },
        {
            "inputs": [
                {
                    "internalType": "uint256",
                    "name": "ctHash",
                    "type": "uint256"
                },
                {
                    "internalType": "address",
                    "name": "requestor",
                    "type": "address"
                }
            ],
            "name": "createDecryptTask",
            "outputs": [],
            "stateMutability": "nonpayable",
            "type": "function"
        },
        {
            "inputs": [
                {
                    "internalType": "uint8",
                    "name": "returnType",
                    "type": "uint8"
                },
                {
                    "internalType": "enum FunctionId",
                    "name": "funcId",
                    "type": "uint8"
                },
                {
                    "internalType": "uint256[]",
                    "name": "encryptedHashes",
                    "type": "uint256[]"
                },
                {
                    "internalType": "uint256[]",
                    "name": "extraInputs",
                    "type": "uint256[]"
                }
            ],
            "name": "createTask",
            "outputs": [
                {
                    "internalType": "uint256",
                    "name": "",
                    "type": "uint256"
                }
            ],
            "stateMutability": "nonpayable",
            "type": "function"
        },
        {
            "inputs": [
                {
                    "internalType": "uint256",
                    "name": "ctHash",
                    "type": "uint256"
                }
            ],
            "name": "getDecryptResult",
            "outputs": [
                {
                    "internalType": "uint256",
                    "name": "",
                    "type": "uint256"
                }
            ],
            "stateMutability": "view",
            "type": "function"
        },
        {
            "inputs": [
                {
                    "internalType": "uint256",
                    "name": "ctHash",
                    "type": "uint256"
                }
            ],
            "name": "getDecryptResultSafe",
            "outputs": [
                {
                    "internalType": "uint256",
                    "name": "",
                    "type": "uint256"
                },
                {
                    "internalType": "bool",
                    "name": "",
                    "type": "bool"
                }
            ],
            "stateMutability": "view",
            "type": "function"
        },
        {
            "inputs": [
                {
                    "internalType": "uint256",
                    "name": "ctHash",
                    "type": "uint256"
                },
                {
                    "internalType": "uint256",
                    "name": "result",
                    "type": "uint256"
                },
                {
                    "internalType": "address[]",
                    "name": "requestors",
                    "type": "address[]"
                }
            ],
            "name": "handleDecryptResult",
            "outputs": [],
            "stateMutability": "nonpayable",
            "type": "function"
        },
        {
            "inputs": [
                {
                    "internalType": "uint256",
                    "name": "ctHash",
                    "type": "uint256"
                },
                {
                    "internalType": "string",
                    "name": "operation",
                    "type": "string"
                },
                {
                    "internalType": "string",
                    "name": "errorMessage",
                    "type": "string"
                }
            ],
            "name": "handleError",
            "outputs": [],
            "stateMutability": "nonpayable",
            "type": "function"
        },
        {
            "inputs": [
                {
                    "internalType": "address",
                    "name": "initialOwner",
                    "type": "address"
                }
            ],
            "name": "initialize",
            "outputs": [],
            "stateMutability": "nonpayable",
            "type": "function"
        },
        {
            "inputs": [
                {
                    "internalType": "uint256",
                    "name": "ctHash",
                    "type": "uint256"
                },
                {
                    "internalType": "address",
                    "name": "account",
                    "type": "address"
                }
            ],
            "name": "isAllowed",
            "outputs": [
                {
                    "internalType": "bool",
                    "name": "",
                    "type": "bool"
                }
            ],
            "stateMutability": "view",
            "type": "function"
        },
        {
            "inputs": [
                {
                    "components": [
                        {
                            "internalType": "address",
                            "name": "issuer",
                            "type": "address"
                        },
                        {
                            "internalType": "uint64",
                            "name": "expiration",
                            "type": "uint64"
                        },
                        {
                            "internalType": "address",
                            "name": "recipient",
                            "type": "address"
                        },
                        {
                            "internalType": "uint256",
                            "name": "validatorId",
                            "type": "uint256"
                        },
                        {
                            "internalType": "address",
                            "name": "validatorContract",
                            "type": "address"
                        },
                        {
                            "internalType": "bytes32",
                            "name": "sealingKey",
                            "type": "bytes32"
                        },
                        {
                            "internalType": "bytes",
                            "name": "issuerSignature",
                            "type": "bytes"
                        },
                        {
                            "internalType": "bytes",
                            "name": "recipientSignature",
                            "type": "bytes"
                        }
                    ],
                    "internalType": "struct Permission",
                    "name": "permission",
                    "type": "tuple"
                },
                {
                    "internalType": "uint256",
                    "name": "handle",
                    "type": "uint256"
                }
            ],
            "name": "isAllowedWithPermission",
            "outputs": [
                {
                    "internalType": "bool",
                    "name": "",
                    "type": "bool"
                }
            ],
            "stateMutability": "view",
            "type": "function"
        },
        {
            "inputs": [],
            "name": "isInitialized",
            "outputs": [
                {
                    "internalType": "bool",
                    "name": "",
                    "type": "bool"
                }
            ],
            "stateMutability": "view",
            "type": "function"
        },
        {
            "inputs": [],
            "name": "owner",
            "outputs": [
                {
                    "internalType": "address",
                    "name": "",
                    "type": "address"
                }
            ],
            "stateMutability": "view",
            "type": "function"
        },
        {
            "inputs": [],
            "name": "pendingOwner",
            "outputs": [
                {
                    "internalType": "address",
                    "name": "",
                    "type": "address"
                }
            ],
            "stateMutability": "view",
            "type": "function"
        },
        {
            "inputs": [],
            "name": "plaintextsStorage",
            "outputs": [
                {
                    "internalType": "contract PlaintextsStorage",
                    "name": "",
                    "type": "address"
                }
            ],
            "stateMutability": "view",
            "type": "function"
        },
        {
            "inputs": [],
            "name": "proxiableUUID",
            "outputs": [
                {
                    "internalType": "bytes32",
                    "name": "",
                    "type": "bytes32"
                }
            ],
            "stateMutability": "view",
            "type": "function"
        },
        {
            "inputs": [],
            "name": "renounceOwnership",
            "outputs": [],
            "stateMutability": "nonpayable",
            "type": "function"
        },
        {
            "inputs": [
                {
                    "internalType": "address",
                    "name": "_aclAddress",
                    "type": "address"
                }
            ],
            "name": "setACLContract",
            "outputs": [],
            "stateMutability": "nonpayable",
            "type": "function"
        },
        {
            "inputs": [
                {
                    "internalType": "address",
                    "name": "_aggregatorAddress",
                    "type": "address"
                }
            ],
            "name": "setAggregator",
            "outputs": [],
            "stateMutability": "nonpayable",
            "type": "function"
        },
        {
            "inputs": [
                {
                    "internalType": "address",
                    "name": "_plaintextsStorageAddress",
                    "type": "address"
                }
            ],
            "name": "setPlaintextsStorage",
            "outputs": [],
            "stateMutability": "nonpayable",
            "type": "function"
        },
        {
            "inputs": [
                {
                    "internalType": "int32",
                    "name": "securityZone",
                    "type": "int32"
                }
            ],
            "name": "setSecurityZoneMax",
            "outputs": [],
            "stateMutability": "nonpayable",
            "type": "function"
        },
        {
            "inputs": [
                {
                    "internalType": "int32",
                    "name": "securityZone",
                    "type": "int32"
                }
            ],
            "name": "setSecurityZoneMin",
            "outputs": [],
            "stateMutability": "nonpayable",
            "type": "function"
        },
        {
            "inputs": [
                {
                    "internalType": "int32",
                    "name": "minSZ",
                    "type": "int32"
                },
                {
                    "internalType": "int32",
                    "name": "maxSZ",
                    "type": "int32"
                }
            ],
            "name": "setSecurityZones",
            "outputs": [],
            "stateMutability": "nonpayable",
            "type": "function"
        },
        {
            "inputs": [
                {
                    "internalType": "address",
                    "name": "signer",
                    "type": "address"
                }
            ],
            "name": "setVerifierSigner",
            "outputs": [],
            "stateMutability": "nonpayable",
            "type": "function"
        },
        {
            "inputs": [
                {
                    "internalType": "address",
                    "name": "newOwner",
                    "type": "address"
                }
            ],
            "name": "transferOwnership",
            "outputs": [],
            "stateMutability": "nonpayable",
            "type": "function"
        },
        {
            "inputs": [
                {
                    "internalType": "address",
                    "name": "newImplementation",
                    "type": "address"
                },
                {
                    "internalType": "bytes",
                    "name": "data",
                    "type": "bytes"
                }
            ],
            "name": "upgradeToAndCall",
            "outputs": [],
            "stateMutability": "payable",
            "type": "function"
        },
        {
            "inputs": [
                {
                    "components": [
                        {
                            "internalType": "uint256",
                            "name": "ctHash",
                            "type": "uint256"
                        },
                        {
                            "internalType": "uint8",
                            "name": "securityZone",
                            "type": "uint8"
                        },
                        {
                            "internalType": "uint8",
                            "name": "utype",
                            "type": "uint8"
                        },
                        {
                            "internalType": "bytes",
                            "name": "signature",
                            "type": "bytes"
                        }
                    ],
                    "internalType": "struct EncryptedInput",
                    "name": "input",
                    "type": "tuple"
                },
                {
                    "internalType": "address",
                    "name": "sender",
                    "type": "address"
                }
            ],
            "name": "verifyInput",
            "outputs": [
                {
                    "internalType": "uint256",
                    "name": "",
                    "type": "uint256"
                }
            ],
            "stateMutability": "nonpayable",
            "type": "function"
        }
    ],
    "bytecode": "0x60a0806040523460c857306080527ff0c57e16840df040f15088dc2f81fe391c3923bec73e23a9662efc9c229c6a009081549060ff8260401c1660b957506001600160401b036002600160401b0319828216016075575b60405161322190816100cd82396080518181816109650152610acb0152f35b6001600160401b031990911681179091556040519081527fc7f505b2f371ae2175ee4913f4499e1f2633a7b5936321eed1cdaeb6115181d290602090a15f80806056565b63f92ee8a960e01b8152600490fd5b5f80fdfe60806040526004361015610011575f80fd5b5f3560e01c806308289827146102245780631888debd1461021f578063245a7bfc1461021a57806326594a0c1461021557806327f9c76214610210578063293f34441461020b57806334ef1e5a14610206578063392e53cd14610201578063458693c9146101fc5780634bc98263146101f75780634f1ef286146101f257806352d1902d146101ed578063591363c7146101e85780635faa299a146101e35780635fb0bf91146101de57806365d0509c146101d9578063715018a6146101d457806379ba5097146101cf57806381ba0986146101ca5780638d9c9c92146101c55780638da5cb5b146101c05780638db39c8d146101bb57806392bd6c95146101b6578063a307d21d146101b1578063ad3cb1cc146101ac578063ae79f04a146101a7578063b80bc2aa146101a2578063c4d66de81461019d578063de28735914610198578063e30c397814610193578063f2fde38b1461018e578063f6bc7f3f146101895763f9120af614610184575f80fd5b611574565b6114ce565b611423565b6113de565b6113b8565b61122c565b611206565b611113565b6110a1565b610fa6565b610f5d565b610f1a565b610ed5565b610e56565b610dfa565b610d98565b610cf8565b610c6a565b610be1565b610bad565b610b2d565b610ab1565b610921565b610852565b6107d8565b6107b7565b610741565b6106e6565b61064a565b610575565b61053d565b6104ad565b610258565b6001600160a01b0381160361023a57565b5f80fd5b6024359061024b82610229565b565b359061024b82610229565b3461023a5760408060031936011261023a57600435906024359061027b82610229565b61028483611ce6565b6102a56102996003546001600160a01b031690565b6001600160a01b031690565b815163995e433960e01b81526004810185905291908190839060249082905afa801561037a575f925f91610347575b5015610315575192835260208301526001600160a01b0316907f023b156100bf14eedc41deb8cef114c1fce662c306697f3bfaf3dbca58130bf790604090a2005b5050610345916001600160a01b0361032b611629565b921661033683611689565b5261033f611e00565b906124c4565b005b90508161036a9293503d8411610373575b61036281836103f2565b810190611604565b9190915f6102d4565b503d610358565b61161e565b359060ff8216820361023a57565b634e487b7160e01b5f52604160045260245ffd5b6080810190811067ffffffffffffffff8211176103bd57604052565b61038d565b67ffffffffffffffff81116103bd57604052565b6040810190811067ffffffffffffffff8211176103bd57604052565b90601f8019910116810190811067ffffffffffffffff8211176103bd57604052565b60405190610100820182811067ffffffffffffffff8211176103bd57604052565b67ffffffffffffffff81116103bd5760051b60200190565b9080601f8301121561023a57602090823561046781610435565b9361047560405195866103f2565b81855260208086019260051b82010192831161023a57602001905b82821061049e575050505090565b81358152908301908301610490565b3461023a57608036600319011261023a5760043560ff8116810361023a5760243590601f82101561023a5767ffffffffffffffff9060443582811161023a576104fa90369060040161044d565b60643592831161023a5761052f9361051961051f94369060040161044d565b92611737565b6040519081529081906020820190565b0390f35b5f91031261023a57565b3461023a575f36600319011261023a5760206001600160a01b035f5460481c16604051908152f35b600435908160030b820361023a57565b3461023a57604036600319011261023a5761058e610565565b6024358060030b810361023a576105cd610345926105aa612960565b5f549060281b68ffffffff0000000000169068ffffffff00000000001916175f55565b5f549060081b64ffffffff00169064ffffffff001916175f55565b67ffffffffffffffff81116103bd57601f01601f191660200190565b81601f8201121561023a5780359061061b826105e8565b9261062960405194856103f2565b8284526020838301011161023a57815f926020809301838601378301015290565b3461023a5760031960403682011261023a5760043567ffffffffffffffff9182821161023a57608090823603011261023a57604051610688816103a1565b8160040135815261069b6024830161037f565b60208201526106ac6044830161037f565b6040820152606482013592831161023a576106d361051f92600461052f9536920101610604565b60608201526106e061023e565b90611843565b3461023a57602036600319011261023a576001600160a01b0360043561070b81610229565b610713612960565b16801561072f576001600160a01b031960035416176003555f80f35b60405163e6c4247b60e01b8152600490fd5b3461023a575f602036600319011261023a57600435608080821603610764575080f35b6001600160a01b0360015416803b1561023a5760405163846cd43360e01b815260048101929092523360248301525f908290604490829084905af1801561037a576107ad575080f35b61034591506103c2565b3461023a575f36600319011261023a57602060ff5f54166040519015158152f35b3461023a57602036600319011261023a576001600160a01b036003541660246040809281519283809263995e433960e01b825260043560048301525afa801561037a575f915f91610833575b50825191825215156020820152f35b905061084c9150823d84116103735761036281836103f2565b5f610824565b3461023a57606036600319011261023a5767ffffffffffffffff60243581811161023a57610884903690600401610604565b9060443590811161023a5761089d903690600401610604565b6001600160a01b035f5460481c163303610909577f66d3f531abdf188fde59b6d2b282dc7c725ef2bb1c6c93954054721a13c1a3fa916109046108f6926040519384936004358552606060208601526060850190611069565b908382036040850152611069565b0390a1005b6040516354ba507f60e11b8152336004820152602490fd5b604036600319011261023a57600480359061093b82610229565b60243567ffffffffffffffff811161023a5761095a9036908301610604565b6001600160a01b03807f000000000000000000000000000000000000000000000000000000000000000016803014908115610a83575b50610a725790602083926109a2612960565b6040516352d1902d60e01b8152938491829088165afa5f9281610a41575b506109f2575050604051634c9c8ce360e01b81526001600160a01b0390921690820190815281906020010390fd5b0390fd5b83837f360894a13ba1a3210667c828492db98dca3e2076cc3735a920a3ca505d382bbc8403610a25576103458383612e79565b604051632a87526960e21b815290810184815281906020010390fd5b610a6491935060203d602011610a6b575b610a5c81836103f2565b810190612a79565b915f6109c0565b503d610a52565b60405163703e46dd60e11b81528390fd5b9050817f360894a13ba1a3210667c828492db98dca3e2076cc3735a920a3ca505d382bbc541614155f610990565b3461023a575f36600319011261023a576001600160a01b037f0000000000000000000000000000000000000000000000000000000000000000163003610b1b5760206040517f360894a13ba1a3210667c828492db98dca3e2076cc3735a920a3ca505d382bbc8152f35b60405163703e46dd60e11b8152600490fd5b3461023a57602036600319011261023a57610b46610565565b610b4e612960565b5f54908160281c60030b91828260030b12610b7f575f805464ffffffff00191664ffffffff00600885901b16179055005b604051631265e79b60e11b8152600392830b600482015292820b602484015260081c900b6044820152606490fd5b3461023a57604036600319011261023a576020610bd7602435610bcf81610229565b6004356119bc565b6040519015158152f35b3461023a57602036600319011261023a57610bfa610565565b610c02612960565b5f548060081c60030b808360030b13610c39575f805468ffffffff0000000000191668ffffffff0000000000602886901b16179055005b604051631265e79b60e11b8152600393840b600482015260289290921c830b602483015290910b6044820152606490fd5b3461023a575f604036600319011261023a57600435602435610c8b81610229565b608080831603610c99578280f35b6001600160a01b036001541691823b1561023a576040516379a3a7fb60e01b815260048101919091526001600160a01b039091166024820152336044820152905f908290818381606481015b03925af1801561037a576107ad57808280f35b3461023a575f36600319011261023a57610d10612960565b5f6001600160a01b036001600160a01b03197f237e158222e3e6968b72b9db0d8043aacf074ad9f650f0d1606b4d82ee432c008181541690557f9016d09d72d40fdae2fd8ceac6b6234c7706214fd39c1cd1e609a0528c19930080549182169055167f8be0079c531659141344cd1fd0a4f28419497f9722a3daafe3b4186f6b6457e08280a3005b3461023a575f36600319011261023a57336001600160a01b037f237e158222e3e6968b72b9db0d8043aacf074ad9f650f0d1606b4d82ee432c00541603610de25761034533612a88565b60405163118cdaa760e01b8152336004820152602490fd5b3461023a57606036600319011261023a5760443567ffffffffffffffff80821161023a573660238301121561023a57816004013590811161023a573660248260051b8401011161023a5760246103459201602435600435611a3e565b3461023a575f604036600319011261023a57600435602435610e7781610229565b608080831603610e85578280f35b6001600160a01b036001541691823b1561023a57604051632426f41160e11b815260048101919091526001600160a01b039091166024820152336044820152905f90829081838160648101610ce5565b3461023a575f36600319011261023a5760206001600160a01b037f9016d09d72d40fdae2fd8ceac6b6234c7706214fd39c1cd1e609a0528c1993005416604051908152f35b3461023a57602036600319011261023a576001600160a01b03600435610f3f81610229565b610f47612960565b166001600160a01b031960025416176002555f80f35b3461023a57602036600319011261023a576001600160a01b03600435610f8281610229565b610f8a612960565b16801561072f576001600160a01b031960015416176001555f80f35b3461023a57602036600319011261023a57600435608080821603610fc657005b610fce611629565b90815115611041576020820152610ff06102996001546001600160a01b031690565b803b1561023a57604051631e1c1cdd60e11b8152915f91839182908490829061101e90339060048401611b57565b03925af1801561037a5761102e57005b8061103b610345926103c2565b80610533565b611675565b604051906020820182811067ffffffffffffffff8211176103bd576040525f8252565b805180835260209291819084018484015e5f828201840152601f01601f1916010190565b90602061109e928181520190611069565b90565b3461023a575f36600319011261023a5761052f6040516110c0816103d6565b600581527f352e302e300000000000000000000000000000000000000000000000000000006020820152604051918291602083526020830190611069565b359067ffffffffffffffff8216820361023a57565b3461023a5760031960403682011261023a5760043567ffffffffffffffff9182821161023a5761010090823603011261023a5761114e610414565b61115a8260040161024d565b8152611168602483016110fe565b60208201526111796044830161024d565b6040820152606482013560608201526111946084830161024d565b608082015260a482013560a082015260c482013583811161023a576111bf9060043691850101610604565b60c082015260e482013592831161023a576111e66111f492600461052f9536920101610604565b60e082015260243590611ba7565b60405190151581529081906020820190565b3461023a575f36600319011261023a5760206001600160a01b0360035416604051908152f35b3461023a57602036600319011261023a5760043561124981610229565b7ff0c57e16840df040f15088dc2f81fe391c3923bec73e23a9662efc9c229c6a00549067ffffffffffffffff60ff8360401c16159216801590816113b0575b60011490816113a6575b15908161139d575b5061138b577ff0c57e16840df040f15088dc2f81fe391c3923bec73e23a9662efc9c229c6a00805467ffffffffffffffff191660011790556112e0908261134a57611c81565b6112e657005b7ff0c57e16840df040f15088dc2f81fe391c3923bec73e23a9662efc9c229c6a00805468ff000000000000000019169055604051600181527fc7f505b2f371ae2175ee4913f4499e1f2633a7b5936321eed1cdaeb6115181d2908060208101610904565b7ff0c57e16840df040f15088dc2f81fe391c3923bec73e23a9662efc9c229c6a00805468ff0000000000000000191668010000000000000000179055611c81565b60405163f92ee8a960e01b8152600490fd5b9050155f61129a565b303b159150611292565b839150611288565b3461023a575f36600319011261023a5760206001600160a01b0360015416604051908152f35b3461023a575f36600319011261023a5760206001600160a01b037f237e158222e3e6968b72b9db0d8043aacf074ad9f650f0d1606b4d82ee432c005416604051908152f35b3461023a57602036600319011261023a5760043561144081610229565b611448612960565b6001600160a01b03809116907f237e158222e3e6968b72b9db0d8043aacf074ad9f650f0d1606b4d82ee432c00826001600160a01b03198254161790557f9016d09d72d40fdae2fd8ceac6b6234c7706214fd39c1cd1e609a0528c19930054167f38d16b8cac22d99fc7c124b9cd0de2d3fa1faef420bfe791d8c362d765e227005f80a3005b3461023a57602036600319011261023a576004356001600160a01b0360035416604091828051809363995e433960e01b8252818061151486600483019190602083019252565b03915afa801561037a575f925f91611551575b501561153857509051908152602090f35b8251631c33d95560e21b81526004810191909152602490fd5b905061156b919250833d85116103735761036281836103f2565b9190915f611527565b3461023a57602036600319011261023a5760043561159181610229565b611599612960565b6001600160a01b0381161561072f577fffffff0000000000000000000000000000000000000000ffffffffffffffffff7cffffffffffffffffffffffffffffffffffffffff0000000000000000005f549260481b169116175f555f80f35b5190811515820361023a57565b919082604091031261023a5761109e6020835193016115f7565b6040513d5f823e3d90fd5b60405190611636826103d6565b6001825260203681840137565b9061164d82610435565b61165a60405191826103f2565b828152809261166b601f1991610435565b0190602036910137565b634e487b7160e01b5f52603260045260245ffd5b8051156110415760200190565b8051600110156110415760400190565b8051600210156110415760600190565b80518210156110415760209160051b010190565b634e487b7160e01b5f52602160045260245ffd5b601f11156116e857565b6116ca565b634e487b7160e01b5f52601160045260245ffd5b9190820180921161170e57565b6116ed565b60409061172d600393959495606083526060830190611069565b9460208201520152565b919091611743836116de565b601b8314611831576117588251855190611701565b6003811161180c57508183916117718361178d956125e2565b61178761177e8784612766565b968793856127fb565b90612880565b916117a36102996001546001600160a01b031690565b91823b1561023a57604051632426f41160e11b815260048101859052336024820152306044820152925f908490606490829084905af190811561037a5761109e936117f3926117f9575b5061216a565b836124c4565b8061103b611806926103c2565b5f6117ed565b6118158461216a565b6109ee604051928392632b0399d560e01b845260048401611713565b60405163098e08ab60e41b8152600490fd5b91909161186c61186061185a602084015160ff1690565b60ff1690565b63ffffffff1660030b90565b6002546001600160a01b0390811694859081611919575b5050506118b492935061189c6040835193015160ff1690565b9060ff617f0091169160081b16179061ffff19161790565b6118c96102996001546001600160a01b031690565b803b1561023a57604051632426f41160e11b815260048101839052336024820152306044820152905f908290606490829084905af1801561037a5761190c575090565b8061103b61109e926103c2565b61192961192585612993565b1590565b6119705761193790856129bb565b91821603611946578080611883565b604051637ba5ffb560e01b81526001600160a01b0391821660048201529085166024820152604490fd5b5f54604051631265e79b60e11b8152600386810b6004830152602883901c810b602483015260089290921c90910b6044820152606490fd5b9081602091031261023a5761109e906115f7565b608080821614611a3757600154604051632fd514cd60e11b815260048101929092526001600160a01b039283166024830152909160209183916044918391165afa90811561037a575f91611a0e575090565b61109e915060203d602011611a30575b611a2881836103f2565b8101906119a8565b503d611a1e565b5050600190565b90939291926001600160a01b035f5460481c16330361090957611a6c6102996003546001600160a01b031690565b92833b1561023a576040805163027c89d760e61b8152600481018590526024810188905290945f908290604490829084905af1801561037a57611b19575b505f5b60ff811682811015611b0f5790611ad3610299611ace611b0a94868b611b3d565b611b4d565b8651868152602081018a90527f023b156100bf14eedc41deb8cef114c1fce662c306697f3bfaf3dbca58130bf790604090a2611b2c565b611aad565b5050509350505050565b8061103b611b26926103c2565b5f611aaa565b60ff1660ff811461170e5760010190565b91908110156110415760051b0190565b3561109e81610229565b90929192604082019060408352805180925260608301916020809201915f5b828110611b9357505050506001600160a01b036020919416910152565b835185529381019392810192600101611b76565b611c666020916001600160a01b03908160015416916040519586948593849363573cf82560e11b8552604060048601528151166044850152611bf988820151606486019067ffffffffffffffff169052565b60408101516001600160a01b03166084850152606081015160a485015260808101516001600160a01b031660c485015260a081015160e485015260e0611c5160c0830151610100610104880152610144870190611069565b91015184820360431901610124860152611069565b90602483015203915afa90811561037a575f91611a0e575090565b611c89612f2f565b611c91612f2f565b6001600160a01b03811615611cce57611ca990612a88565b611cb1612f2f565b600160ff195f5416175f556001600160a01b031960025416600255565b604051631e4fbdf760e01b81525f6004820152602490fd5b608080821603611cf35750565b611d086102996001546001600160a01b031690565b604051632fd514cd60e11b81526004810183905233602482015290602090829060449082905afa90811561037a575f91611d66575b5015611d465750565b60405163268989cf60e11b81526004810191909152336024820152604490fd5b611d7f915060203d602011611a3057611a2881836103f2565b5f611d3d565b60405190611d92826103d6565b600482526318d85cdd60e21b6020830152565b60405190611db2826103d6565b600a82527f7365616c4f7574707574000000000000000000000000000000000000000000006020830152565b60405190611deb826103d6565b60068252651cd95b1958dd60d21b6020830152565b60405190611e0d826103d6565b600782527f64656372797074000000000000000000000000000000000000000000000000006020830152565b60405190611e46826103d6565b600382526239bab160e91b6020830152565b60405190611e65826103d6565b600382526218591960ea1b6020830152565b60405190611e84826103d6565b60038252623c37b960e91b6020830152565b60405190611ea3826103d6565b6003825262185b9960ea1b6020830152565b60405190611ec2826103d6565b600282526137b960f11b6020830152565b60405190611ee0826103d6565b60038252621b9bdd60ea1b6020830152565b60405190611eff826103d6565b60038252623234bb60e91b6020830152565b60405190611f1e826103d6565b600382526272656d60e81b6020830152565b60405190611f3d826103d6565b60038252621b5d5b60ea1b6020830152565b60405190611f5c826103d6565b60038252621cda1b60ea1b6020830152565b60405190611f7b826103d6565b600382526239b43960e91b6020830152565b60405190611f9a826103d6565b600382526267746560e81b6020830152565b60405190611fb9826103d6565b60038252626c746560e81b6020830152565b60405190611fd8826103d6565b60028252611b1d60f21b6020830152565b60405190611ff6826103d6565b600282526119dd60f21b6020830152565b60405190612014826103d6565b600382526236b4b760e91b6020830152565b60405190612033826103d6565b60038252620dac2f60eb1b6020830152565b60405190612052826103d6565b6002825261657160f01b6020830152565b60405190612070826103d6565b60028252616e6560f01b6020830152565b6040519061208e826103d6565b600e82527f7472697669616c456e63727970740000000000000000000000000000000000006020830152565b604051906120c7826103d6565b600682527f72616e646f6d00000000000000000000000000000000000000000000000000006020830152565b60405190612100826103d6565b60038252621c9bdb60ea1b6020830152565b6040519061211f826103d6565b60038252623937b960e91b6020830152565b6040519061213e826103d6565b600682527f73717561726500000000000000000000000000000000000000000000000000006020830152565b612173816116de565b6002811461244057612184816116de565b6003811461243757612195816116de565b6004811461242e576121a6816116de565b60068114612425576121b7816116de565b6007811461241c576121c8816116de565b60088114612413576121d9816116de565b6009811461240a576121ea816116de565b600a8114612401576121fb816116de565b600b81146123f85761220c816116de565b600c81146123ef5761221d816116de565b600d81146123e65761222e816116de565b600e81146123dd5761223f816116de565b600f81146123d457612250816116de565b601081146123cb57612261816116de565b601181146123c257612272816116de565b601281146123b957612283816116de565b601381146123b057612294816116de565b601481146123a7576122a5816116de565b6015811461239e576122b6816116de565b60168114612395576122c7816116de565b6017811461238c576122d8816116de565b60188114612383576122e9816116de565b6019811461237a576122fa816116de565b601a81146123715761230b816116de565b601b81146123685761231c816116de565b601c811461235f5761232d816116de565b601d81146123565780612341601e926116de565b1461234e5761109e611046565b61109e612131565b5061109e612112565b5061109e6120f3565b5061109e6120ba565b5061109e612081565b5061109e612063565b5061109e612045565b5061109e612026565b5061109e612007565b5061109e611fe9565b5061109e611fcb565b5061109e611fac565b5061109e611f8d565b5061109e611f6e565b5061109e611f4f565b5061109e611f30565b5061109e611f11565b5061109e611ef2565b5061109e611ed3565b5061109e611eb5565b5061109e611e96565b5061109e611e77565b5061109e611e58565b5061109e611e39565b5061109e611e00565b5061109e611dde565b5061109e611da5565b5061109e611d85565b916124689060809497969592845260a0602085015260a0840190611069565b95604083015260608201520152565b90936124686080935f959796845260a0602085015260a0840190611069565b6124b45f93608093969596835260a0602084015260a0830190611069565b9460408201528260608201520152565b82516001810361250e57506125096124fc7fe9de54a3e7ddf0c48cc6e1134185300d5a71acbf2d8c21fcdefa9d9dd9e20ac194611689565b5160405193849384612496565b0390a1565b6002810361255d57506125098361254f6125487fe9de54a3e7ddf0c48cc6e1134185300d5a71acbf2d8c21fcdefa9d9dd9e20ac196611689565b5191611696565b519060405194859485612477565b15611041576125098360207fe9de54a3e7ddf0c48cc6e1134185300d5a71acbf2d8c21fcdefa9d9dd9e20ac1950151906125a061259982611696565b51916116a6565b519160405195869586612449565b60409061172d600293959495606083526060830190611069565b60409061172d600193959495606083526060830190611069565b9190916125ee8361216a565b815115612725576125fe846116de565b600484036126815761260f82612b83565b61262461261b83611689565b5160ff165f0b90565b9361263161192586612993565b6126495761024b93945061264483612c38565b612cac565b5f54604051631265e79b60e11b8152600387810b6004830152602883901c810b602483015260089290921c90910b6044820152606490fd5b61268a84612b36565b156126bc5781516001810361269f575061260f565b6040516326a10d4760e21b81529182916109ee91600484016125c8565b81516002810361270857506126e66126d383611689565b516126dd84611696565b5118617fff1690565b1561260f576040516352b50ae160e01b81529081906109ee906004830161108d565b6040516326a10d4760e21b81529182916109ee91600484016125ae565b9192612735915061192590612b16565b61273c5750565b60405163598b095560e11b81529081906109ee906004830161108d565b9190820391821161170e57565b919082518151810180911161170e5761277e90611643565b905f5b845160ff8216908110156127b45790816127a96127a16127af94896116b6565b5191866116b6565b52611b2c565b612781565b509392935b6127c68451835190611701565b60ff8216908110156127f357906127ee916127a96127a16127e8885184612759565b866116b6565b6127b9565b505050905090565b61280790929192612b16565b61281f5750805115611041576020015160ff165f0b90565b809150515f19810190811161170e57612837916116b6565b5160030b90565b805191908290602001825e015f815290565b61024b9061287261286c9493604051958693602085019061283e565b9061283e565b03601f1981018452836103f2565b91909293606094612890816116de565b601a8114905f965b845160ff8916908110156128d2576128cc916128c06128ba6128c693896116b6565b51612da4565b90612850565b97611b2c565b96612898565b50909361109e969397509491946128e8856116de565b601e8514612941575b509061293b91612900856116de565b60405161293260018261291760208201809661283e565b60ff60f81b8a60f81b16815203601e198101845201826103f2565b51902093612dbd565b91612a4e565b93509061295961293b926128c06128ba600f97611689565b90916128f1565b6001600160a01b037f9016d09d72d40fdae2fd8ceac6b6234c7706214fd39c1cd1e609a0528c19930054163303610de257565b5f549060030b8160281c60030b81121591826129ae57505090565b60081c60030b1215919050565b6060612a2a92825190604084015190602085015191604051926020840194855260ff60f81b809260f81b16604085015260f81b1660418301526bffffffffffffffffffffffff1990841b16604282015246605682015260568152612a1e816103a1565b51902091015190612e63565b6001600160a01b03811615612a3c5790565b604051638baa579f60e01b8152600490fd5b9215612a6e57607f60ff6080925b1692161760081b179061ffff19161790565b607f60ff5f92612a5c565b9081602091031261023a575190565b6001600160a01b0319907f237e158222e3e6968b72b9db0d8043aacf074ad9f650f0d1606b4d82ee432c008281541690557f9016d09d72d40fdae2fd8ceac6b6234c7706214fd39c1cd1e609a0528c1993008054906001600160a01b0380931680948316179055167f8be0079c531659141344cd1fd0a4f28419497f9722a3daafe3b4186f6b6457e05f80a3565b601f8110156116e857601b8114908115612b2e575090565b601a91501490565b601f8110156116e857600c8114908115612b4e575090565b601e91501490565b60406003919392936060815261172d6060820160409060068152651cd95b1958dd60d21b60208201520190565b805160038103612c1b5750612ba4612b9a82611696565b516126dd836116a6565b612bec57612bb4612bbe91611689565b5160081c607f1690565b60ff8116612bc95750565b60405163884a0e9d60e01b815260ff9190911660048201525f6024820152604490fd5b6040516352b50ae160e01b81526020600482015260066024820152651cd95b1958dd60d21b6044820152606490fd5b6040516326a10d4760e21b81529081906109ee9060048301612b56565b5f5b81519060ff811691821015612c6957612c5f612c59612c6493856116b6565b51611ce6565b611b2c565b612c3a565b505050565b91906020612c86600792604086526040860190611069565b930152565b9060ff612ca5602092959495604085526040850190611069565b9416910152565b92909192612cb981612f70565b612d9e57612cc690612fc7565b15612d29575f5b835160ff821690811015612d22576007612ced612bb4612cf493886116b6565b1860ff1690565b15612d0757612d0290611b2c565b612ccd565b604051631236966f60e31b8152806109ee8560048301612c6e565b5050915050565b91905f5b825160ff9081831690811015612d9757612bb4612d4a91866116b6565b9080600783181615908115612d8c575b50612d6e5750612d6990611b2c565b612d2d565b604051631236966f60e31b81529081906109ee908560048401612c8b565b90508116155f612d5a565b5050505050565b50915050565b60405190612db1826103d6565b60208252602082015290565b612dc6816116de565b60138114908115612e4e575b8115612e39575b8115612e24575b8115612e0f575b8115612dfb575b50612df65790565b505f90565b60199150612e08816116de565b145f612dee565b9050612e1a816116de565b6018811490612de7565b9050612e2f816116de565b6015811490612de0565b9050612e44816116de565b6012811490612dd9565b9050612e59816116de565b6014811490612dd2565b61109e91612e709161301a565b9092919261305e565b90813b15612f0e576001600160a01b0382167f360894a13ba1a3210667c828492db98dca3e2076cc3735a920a3ca505d382bbc816001600160a01b03198254161790557fbc7cd75a20ee27fd9adebab32041f755214dbc6bffa90cc0225b39da2e5c2d3b5f80a2805115612ef357612ef0916130eb565b50565b505034612efc57565b60405163b398979f60e01b8152600490fd5b604051634c9c8ce360e01b81526001600160a01b0383166004820152602490fd5b60ff7ff0c57e16840df040f15088dc2f81fe391c3923bec73e23a9662efc9c229c6a005460401c1615612f5e57565b604051631afcd79f60e31b8152600490fd5b601f8110156116e85760048114908115612fbc575b8115612fa7575b8115612f96575090565b60029150612fa3816116de565b1490565b9050612fb2816116de565b6019811490612f8c565b601881149150612f85565b601f8110156116e8576009811490811561300f575b8115612ffa575b8115612fed575090565b600c9150612fa3816116de565b9050613005816116de565b600b811490612fe3565b600a81149150612fdc565b815191906041830361304a576130439250602082015190606060408401519301515f1a9061312f565b9192909190565b50505f9160029190565b600411156116e857565b61306781613054565b80613070575050565b61307981613054565b600181036130935760405163f645eedf60e01b8152600490fd5b61309c81613054565b600281036130bd5760405163fce698f760e01b815260048101839052602490fd5b806130c9600392613054565b146130d15750565b6040516335e2f38360e21b81526004810191909152602490fd5b5f8061109e93602081519101845af43d15613127573d9161310b836105e8565b9261311960405194856103f2565b83523d5f602085013e6131b1565b6060916131b1565b91907f7fffffffffffffffffffffffffffffff5d576e7357a4501ddfe92f46681b20a084116131a6579160209360809260ff5f9560405194855216868401526040830152606082015282805260015afa1561037a575f516001600160a01b0381161561319c57905f905f90565b505f906001905f90565b5050505f9160039190565b906131d857508051156131c657805190602001fd5b60405163d6bda27560e01b8152600490fd5b8151158061320b575b6131e9575090565b604051639996b31560e01b81526001600160a01b039091166004820152602490fd5b50803b156131e156fea164736f6c6343000819000a",
    "linkReferences": {},
    "deployedLinkReferences": {},
    "address": "0xeA30c4B8b44078Bbf8a6ef5b9f1eC1626C7848D9"
}